{
  "abi": [
    {
      "type": "constructor",
      "inputs": [
        {
          "name": "tokenAddress",
          "type": "address",
          "internalType": "address"
        }
      ],
      "stateMutability": "nonpayable"
    },
    {
      "type": "function",
      "name": "GLTaddress",
      "inputs": [],
      "outputs": [
        {
          "name": "",
          "type": "address",
          "internalType": "address"
        }
      ],
      "stateMutability": "view"
    },
    {
      "type": "function",
      "name": "addAirwayNfts",
      "inputs": [
        {
          "name": "nft",
          "type": "tuple",
          "internalType": "struct ShopContract.NFTListing",
          "components": [
            {
              "name": "nftAddress",
              "type": "address",
              "internalType": "address"
            },
            {
              "name": "price",
              "type": "uint256",
              "internalType": "uint256"
            }
          ]
        }
      ],
      "outputs": [],
      "stateMutability": "nonpayable"
    },
    {
      "type": "function",
      "name": "addressToNFTIndex",
      "inputs": [
        {
          "name": "",
          "type": "address",
          "internalType": "address"
        }
      ],
      "outputs": [
        {
          "name": "",
          "type": "uint256",
          "internalType": "uint256"
        }
      ],
      "stateMutability": "view"
    },
    {
      "type": "function",
      "name": "airwayNFTs",
      "inputs": [
        {
          "name": "",
          "type": "uint256",
          "internalType": "uint256"
        }
      ],
      "outputs": [
        {
          "name": "nftAddress",
          "type": "address",
          "internalType": "address"
        },
        {
          "name": "price",
          "type": "uint256",
          "internalType": "uint256"
        }
      ],
      "stateMutability": "view"
    },
    {
      "type": "function",
      "name": "buyNFT",
      "inputs": [
        {
          "name": "nftAddress",
          "type": "address",
          "internalType": "address"
        }
      ],
      "outputs": [],
      "stateMutability": "payable"
    },
    {
      "type": "event",
      "name": "NFTBought",
      "inputs": [
        {
          "name": "buyerAddress",
          "type": "address",
          "indexed": true,
          "internalType": "address"
        },
        {
          "name": "nftAddress",
          "type": "address",
          "indexed": false,
          "internalType": "address"
        }
      ],
      "anonymous": false
    }
  ],
  "bytecode": {
    "object": "0x6080604052348015600f57600080fd5b50604051610544380380610544833981016040819052602c916059565b600180546001600160a01b039092166001600160a01b031992831617905560048054909116331790556087565b600060208284031215606a57600080fd5b81516001600160a01b0381168114608057600080fd5b9392505050565b6104ae806100966000396000f3fe60806040526004361061004a5760003560e01c80636b3a84941461004f5780636c386c1d1461008c57806375d5766e146100c7578063ba79b56414610106578063bd3bb9311461011b575b600080fd5b34801561005b57600080fd5b5060015461006f906001600160a01b031681565b6040516001600160a01b0390911681526020015b60405180910390f35b34801561009857600080fd5b506100b96100a73660046103a0565b60036020526000908152604090205481565b604051908152602001610083565b3480156100d357600080fd5b506100e76100e23660046103c2565b61013b565b604080516001600160a01b039093168352602083019190915201610083565b6101196101143660046103a0565b610173565b005b34801561012757600080fd5b506101196101363660046103db565b6102d5565b6002818154811061014b57600080fd5b6000918252602090912060029091020180546001909101546001600160a01b03909116915082565b6001600160a01b0381166000908152600360205260408120546002805490919081106101a1576101a1610440565b60009182526020909120600160029092020181015490546040516323b872dd60e01b8152336004820152306024820152604481018390529192506001600160a01b0316906323b872dd906064016020604051808303816000875af115801561020d573d6000803e3d6000fd5b505050506040513d601f19601f820116820180604052508101906102319190610456565b61023a57600080fd5b6040516340d097c360e01b81523360048201526001600160a01b038316906340d097c390602401600060405180830381600087803b15801561027b57600080fd5b505af115801561028f573d6000803e3d6000fd5b50506040516001600160a01b03851681523392507f5985c46418ad0365a68cc6514ef0028df568e94a7e1c36e4a039caa341710e8f915060200160405180910390a25050565b6004546001600160a01b031633146102ec57600080fd5b6002805482516001600160a01b03908116600090815260036020908152604082208490556001840185559084905284517f405787fa12a823e0f2b7631cc41b3ba8828b3321ca811111fa75cd3aa3bb5ace9390940292830180546001600160a01b031916949092169390931790559101517f405787fa12a823e0f2b7631cc41b3ba8828b3321ca811111fa75cd3aa3bb5acf90910155565b80356001600160a01b038116811461039b57600080fd5b919050565b6000602082840312156103b257600080fd5b6103bb82610384565b9392505050565b6000602082840312156103d457600080fd5b5035919050565b6000604082840312156103ed57600080fd5b6040516040810181811067ffffffffffffffff8211171561041e57634e487b7160e01b600052604160045260246000fd5b60405261042a83610384565b8152602083013560208201528091505092915050565b634e487b7160e01b600052603260045260246000fd5b60006020828403121561046857600080fd5b815180151581146103bb57600080fdfea26469706673582212206623e099ae096b7b2713859edf59c3cadaa739186c244433644e09d5137b69fb64736f6c63430008190033",
    "linkReferences": {}
  },
  "methodIdentifiers": {
    "GLTaddress()": "6b3a8494",
    "addAirwayNfts((address,uint256))": "bd3bb931",
    "addressToNFTIndex(address)": "6c386c1d",
    "airwayNFTs(uint256)": "75d5766e",
    "buyNFT(address)": "ba79b564"
  },
  "id": 15
}