{"abi":[{"type":"constructor","inputs":[{"name":"plonkVerifierAddress","type":"address","internalType":"address"}],"stateMutability":"nonpayable"},{"type":"function","name":"isVerified","inputs":[{"name":"userAddess","type":"address","internalType":"address"}],"outputs":[{"name":"","type":"bool","internalType":"bool"}],"stateMutability":"view"},{"type":"function","name":"ownerAddress","inputs":[],"outputs":[{"name":"","type":"address","internalType":"address"}],"stateMutability":"view"},{"type":"function","name":"s_plonkVerifierAddress","inputs":[],"outputs":[{"name":"","type":"address","internalType":"address"}],"stateMutability":"view"},{"type":"function","name":"submitProof","inputs":[{"name":"proof","type":"uint256[24]","internalType":"uint256[24]"},{"name":"pubSignals","type":"uint256[1]","internalType":"uint256[1]"},{"name":"toWhitelistAddress","type":"address","internalType":"address"}],"outputs":[{"name":"","type":"bool","internalType":"bool"}],"stateMutability":"nonpayable"},{"type":"function","name":"whitelistAddress","inputs":[{"name":"userAddress","type":"address","internalType":"address"}],"outputs":[],"stateMutability":"nonpayable"},{"type":"function","name":"whitelistedAddressToTime","inputs":[{"name":"","type":"address","internalType":"address"}],"outputs":[{"name":"","type":"uint256","internalType":"uint256"}],"stateMutability":"view"},{"type":"event","name":"ProofResult","inputs":[{"name":"result","type":"bool","indexed":false,"internalType":"bool"}],"anonymous":false}],"bytecode":{"object":"0x6080604052348015600f57600080fd5b50604051610414380380610414833981016040819052602c916059565b600080546001600160a01b039092166001600160a01b031992831617905560018054909116331790556087565b600060208284031215606a57600080fd5b81516001600160a01b0381168114608057600080fd5b9392505050565b61037e806100966000396000f3fe608060405234801561001057600080fd5b50600436106100625760003560e01c8063087182ef14610067578063415665851461009a57806344896a9a146100c6578063541e2b60146100f15780638f84aa0914610114578063b9209e3314610127575b600080fd5b61008761007536600461026e565b60026020526000908152604090205481565b6040519081526020015b60405180910390f35b6100c46100a836600461026e565b6001600160a01b03166000908152600260205260409020429055565b005b6000546100d9906001600160a01b031681565b6040516001600160a01b039091168152602001610091565b6101046100ff366004610290565b61013a565b6040519015158152602001610091565b6001546100d9906001600160a01b031681565b61010461013536600461026e565b610220565b600080546040516001628dbf5960e01b0319815282916001600160a01b03169063ff7240a79061017090889088906004016102e4565b602060405180830381865afa15801561018d573d6000803e3d6000fd5b505050506040513d601f19601f820116820180604052508101906101b191906102ff565b90507fb6030296ed6d28f593d0c257c080ef243cd60eb419e82d45d9e530c593915102816040516101e6911515815260200190565b60405180910390a180151560010361021857610218836001600160a01b03166000908152600260205260409020429055565b949350505050565b600061022f62278d0042610321565b6001600160a01b0390921660009081526002602052604090205491909111919050565b80356001600160a01b038116811461026957600080fd5b919050565b60006020828403121561028057600080fd5b61028982610252565b9392505050565b600080600061034084860312156102a657600080fd5b6103008401858111156102b857600080fd5b8493506103208501868111156102cd57600080fd5b8193506102d981610252565b925050509250925092565b61032081016103008085843760208482850137509392505050565b60006020828403121561031157600080fd5b8151801515811461028957600080fd5b8181038181111561034257634e487b7160e01b600052601160045260246000fd5b9291505056fea2646970667358221220d2616786681cd0a5ac0ba30fd0b228f7ceb3d9a8ffa5ee638697b7932834660c64736f6c63430008190033","linkReferences":{}},"methodIdentifiers":{"isVerified(address)":"b9209e33","ownerAddress()":"8f84aa09","s_plonkVerifierAddress()":"44896a9a","submitProof(uint256[24],uint256[1],address)":"541e2b60","whitelistAddress(address)":"41566585","whitelistedAddressToTime(address)":"087182ef"},"id":0}