{
  "abi": [
    {
      "type": "constructor",
      "inputs": [
        {
          "name": "plonkVerifierAddress",
          "type": "address",
          "internalType": "address"
        }
      ],
      "stateMutability": "nonpayable"
    },
    {
      "type": "function",
      "name": "s_plonkVerifierAddress",
      "inputs": [],
      "outputs": [
        {
          "name": "",
          "type": "address",
          "internalType": "address"
        }
      ],
      "stateMutability": "view"
    },
    {
      "type": "function",
      "name": "submitProof",
      "inputs": [
        {
          "name": "proof",
          "type": "uint256[24]",
          "internalType": "uint256[24]"
        },
        {
          "name": "pubSignals",
          "type": "uint256[1]",
          "internalType": "uint256[1]"
        }
      ],
      "outputs": [
        {
          "name": "",
          "type": "bool",
          "internalType": "bool"
        }
      ],
      "stateMutability": "nonpayable"
    },
    {
      "type": "event",
      "name": "ProofResult",
      "inputs": [
        {
          "name": "result",
          "type": "bool",
          "indexed": false,
          "internalType": "bool"
        }
      ],
      "anonymous": false
    }
  ],
  "bytecode": {
    "object": "0x6080604052348015600f57600080fd5b50604051610295380380610295833981016040819052602c916050565b600080546001600160a01b0319166001600160a01b0392909216919091179055607e565b600060208284031215606157600080fd5b81516001600160a01b0381168114607757600080fd5b9392505050565b6102088061008d6000396000f3fe608060405234801561001057600080fd5b50600436106100365760003560e01c806344896a9a1461003b5780636641be151461006b575b600080fd5b60005461004e906001600160a01b031681565b6040516001600160a01b0390911681526020015b60405180910390f35b61007e610079366004610149565b61008e565b6040519015158152602001610062565b600080546040516001628dbf5960e01b0319815282916001600160a01b03169063ff7240a7906100c4908790879060040161018e565b602060405180830381865afa1580156100e1573d6000803e3d6000fd5b505050506040513d601f19601f8201168201806040525081019061010591906101a9565b90507fb6030296ed6d28f593d0c257c080ef243cd60eb419e82d45d9e530c5939151028160405161013a911515815260200190565b60405180910390a19392505050565b60008061032080848603121561015e57600080fd5b61030084018581111561017057600080fd5b84935085828601111561018257600080fd5b80925050509250929050565b61032081016103008085843760208482850137509392505050565b6000602082840312156101bb57600080fd5b815180151581146101cb57600080fd5b939250505056fea2646970667358221220c4430c646be89c0e6bb74ab8bf7bb311f12439654c8aa9264eb57238545df66764736f6c63430008190033",
    "linkReferences": {}
  },
  "methodIdentifiers": {
    "s_plonkVerifierAddress()": "44896a9a",
    "submitProof(uint256[24],uint256[1])": "6641be15"
  },
  "id": 21
}